:100000000C945E000C9486000C9486000C94860080
:100010000C9486000C9486000C9486000C94860048
:100020000C9486000C9486000C9486000C94B60305
:100030000C9486000C9486000C9486000C94860028
:100040000C9414030C9486000C9484030C945E03AB
:100050000C9486000C9486000C9486000C94860008
:100060000C9486000C9486000000000024002700F9
:100070002A0000000000250028002B0004040404CE
:100080000404040402020202020203030303030342
:10009000010204081020408001020408102001021F
:1000A00004081020000000080002010000030407FB
:1000B00000000000000000007704230711241FBE89
:1000C000CFEFD8E0DEBFCDBF11E0A0E0B1E0E4E3C8
:1000D000F4E102C005900D92A434B107D9F722E0F3
:1000E000A4E4B1E001C01D92AF31B207E1F710E026
:1000F000CDE5D0E004C02197FE010E940B08CC356D
:10010000D107C9F70E9407050C940D0A0C94000052
:10011000CF92DF92EF92FF92DC01A03282E0B8072B
:100120000CF03EC0B7FD06C0A53BB1052CF0A4EB1A
:10013000B0E002C0A0E0B0E08091130228E830E017
:100140006901C81AD10887FDD394CC0CDD1CCC0CF6
:10015000DD1C0D2C000CEE08FF088091140228E530
:1001600032E0281B310987FD3395220F331F220F00
:10017000331FA901330F660B770B9A01AB012C19C2
:100180003D094E095F090E948F0724EB30E040E0F3
:1001900050E00E946507C20ED31EE41EF51ED60174
:1001A000909112029C3098F58091130248E850E03B
:1001B000481B510987FD5395440F551F440F551F88
:1001C000A417B5078CF08091140228E532E0281BB3
:1001D000310987FD3395220F331F220F331FAD01E5
:1001E0002A173B070CF4A90142505109440F551F2F
:1001F0002FB7F894892F90E0FC01EE0FFF1F8E0FB0
:100200009F1FFC01E351FE4F528341832FBFFF909C
:10021000EF90DF90CF90089590E0FC01EC55FF4FF8
:100220002491FC01E057FF4F3491FC01E458FF4F4B
:10023000E491EE2309F43CC0222339F1233091F0FC
:1002400038F42130A9F0223001F584B58F7D12C039
:10025000273091F02830A1F02430B9F4809180004B
:100260008F7D03C0809180008F77809380000DC0C8
:1002700084B58F7784BD09C08091B0008F7703C0AB
:100280008091B0008F7D8093B000F0E0EE0FFF1FF3
:10029000EE58FF4FA591B4919FB7F894611104C037
:1002A0008C913095382302C0EC913E2B3C939FBF3C
:1002B00008953FB7F89480914C0190914D01A09121
:1002C0004E01B0914F0126B5A89B05C02F3F19F0F4
:1002D0000196A11DB11D3FBFBA2FA92F982F8827C6
:1002E000820F911DA11DB11DBC01CD0142E0660F21
:1002F000771F881F991F4A95D1F708958F929F9273
:10030000AF92BF92CF92DF92EF92FF920E9459017B
:100310004B015C0185E0C82ED12CE12CF12C0E9410
:100320005901DC01CB0188199909AA09BB09883E4A
:100330009340A105B10598F321E0C21AD108E10864
:10034000F10888EE880E83E0981EA11CB11CC11430
:10035000D104E104F10419F7FF90EF90DF90CF9002
:10036000BF90AF909F908F900895CF92DF92EF92C1
:10037000FF920F931F93CF93DF936C017A018B0150
:10038000C0E0D0E0CE15DF0581F0D8016D918D0180
:10039000D601ED91FC910190F081E02DC601099507
:1003A000892B11F02196EECF7E01C701DF91CF910D
:1003B0001F910F91FF90EF90DF90CF9008950895D7
:1003C00080E090E00895FC01538D448D252F30E0AE
:1003D000842F90E0821B930B541710F0CF96089552
:1003E00001970895FC01918D828D981761F0828D9F
:1003F000DF01A80FB11D5D968C91928D9F5F9F7359
:10040000928F90E008958FEF9FEF0895FC01918DFA
:10041000828D981731F0828DE80FF11D858D90E067
:1004200008958FEF9FEF0895FC01918D228D892F04
:1004300090E0805C9F4F821B91098F7399270895EC
:1004400080E591E00E94140221E0892B09F420E06C
:10045000822F0895FC01848DDF01A80FB11DA35ADE
:10046000BF4F2C91848D90E001968F739927848FD4
:10047000A689B7892C93A089B1898C9183708064F7
:100480008C93938D848D981306C00288F389E02D98
:1004900080818F7D80830895EF92FF920F931F9349
:1004A000CF93DF93EC0181E0888F9B8D8C8D981327
:1004B00005C0E889F989808185FD26C0F62E0B8D5F
:1004C00010E00F5F1F4F0F731127E02E8C8DE81285
:1004D0000CC00FB607FCFACFE889F989808185FF47
:1004E000F5CFCE010E942A02F1CF8B8DFE01E80FDD
:1004F000F11DE35AFF4FF0829FB7F8940B8FEA8902
:10050000FB89808180620AC09FB7F894EE89FF89D9
:100510006083E889F98980818370806480839FBFCC
:1005200081E090E0DF91CF911F910F91FF90EF90CC
:100530000895CF93DF93EC01888D8823C9F0EA8971
:10054000FB89808185FD05C0A889B9898C9186FDCC
:100550000FC00FB607FCF5CF808185FFF2CFA889C9
:10056000B9898C9185FFEDCFCE010E942A02E7CF99
:10057000DF91CF91089580E090E0892B29F00E94CF
:10058000200281110C9400000895009769F0FC018D
:1005900001900020E9F73197AF01481B590BBC01CE
:1005A00080E591E00C94B50180E090E00895CF9350
:1005B000DF930E94C502EC0188E191E00E94C50230
:1005C0008C0F9D1FDF91CF910895CF93DF93EC01A6
:1005D0008091150290911602009739F02091170230
:1005E000309118022C173D07B8F4BE016F5F7F4FA2
:1005F0000E943209009791F09093160280931502A1
:10060000D0931802C09317022091190230911A0258
:10061000232B11F4FC01108281E001C080E0DF9106
:10062000CF9108950E94F8091F920F920FB60F9272
:1006300011242F933F938F939F93AF93BF938091F8
:10064000480190914901A0914A01B0914B0130912C
:10065000470123E0230F2D3720F40196A11DB11D82
:1006600005C026E8230F0296A11DB11D2093470166
:100670008093480190934901A0934A01B0934B01A4
:1006800080914C0190914D01A0914E01B0914F018C
:100690000196A11DB11D80934C0190934D01A09333
:1006A0004E01B0934F01BF91AF919F918F913F91B8
:1006B0002F910F900FBE0F901F9018951F920F92C1
:1006C0000FB60F9211242F933F934F935F936F9325
:1006D0007F938F939F93AF93BF93EF93FF9380E5A7
:1006E00091E00E942A02FF91EF91BF91AF919F91FB
:1006F0008F917F916F915F914F913F912F910F90CB
:100700000FBE0F901F9018951F920F920FB60F9269
:1007100011242F938F939F93EF93FF93E0916001A8
:10072000F09161018081E0916601F091670182FDA5
:1007300012C09081809169018F5F8F7320916A014F
:10074000821751F0E0916901F0E0E05BFE4F958F78
:100750008093690101C08081FF91EF919F918F91FA
:100760002F910F900FBE0F901F9018951F920F9210
:100770000FB60F9211242F933F934F935F936F9374
:100780007F938F939F93AF93BF93EF93FF9380914A
:10079000440187FF05C010928500109284001BC0A1
:1007A00020914401022E000C330B8091110290E045
:1007B0002817390784F480914401082E000C990B06
:1007C000FC01EE0FFF1F8E0F9F1FFC01E351FE4F38
:1007D000808186FD15C0809144018F5F8093440124
:1007E00020914401022E000C330B8091110290E005
:1007F00028173907C4F4809144018C3064F113C088
:1008000080914401082E000C990BFC01EE0FFF1F94
:100810008E0F9F1FFC01E351FE4F808160E08F73BC
:100820000E940C01D8CF809184009091850004969D
:1008300080349C4918F480E49CE905C080918400D0
:1008400090918500049690938900809388008FEFA3
:10085000809344013BC020918400309185008091B9
:100860004401082E000C990BFC01EE0FFF1F8E0FA8
:100870009F1FFC01E351FE4F81819281820F931FE4
:10088000909389008093880080914401082E000C89
:10089000990BFC01EE0FFF1F8E0F9F1FFC01E35110
:1008A000FE4F808186FF12C080914401082E000C0B
:1008B000990BFC01EE0FFF1F8E0F9F1FFC01E351F0
:1008C000FE4F808161E08F730E940C01FF91EF91D8
:1008D000BF91AF919F918F917F916F915F914F9158
:1008E0003F912F910F900FBE0F901F90189510926F
:1008F00053011092520188EE93E0A0E0B0E08093A3
:10090000540190935501A0935601B09357018AE08A
:1009100091E0909351018093500185EC90E0909389
:100920005D0180935C0184EC90E090935F01809383
:100930005E0180EC90E0909361018093600181EC16
:1009400090E0909363018093620182EC90E0909339
:1009500065018093640186EC90E090936701809339
:1009600066011092690110926A0110926B01109257
:100970006C01109216021092150210921802109239
:10098000170210921A021092190280E090E00E9461
:10099000E5022091150230911602811113C0211534
:1009A000310519F0C9010E94A9081092160210928F
:1009B000150210921A021092190210921802109247
:1009C000170209C010921A02109219026AE171E02E
:1009D000C9010E94060A809111028C30A0F491E0B6
:1009E000980F909311028093120290E0FC01EE0F99
:1009F000FF1F8E0F9F1FFC01E351FE4F88EB9BE012
:100A00009283818308958FEF809312020895CF938C
:100A1000DF93CDB7DEB7A1970FB6F894DEBF0FBE58
:100A2000CDBF789484B5826084BD84B5816084BD77
:100A300085B5826085BD85B5816085BD80916E007C
:100A4000816080936E0010928100809181008260AD
:100A500080938100809181008160809381008091EA
:100A600080008160809380008091B10084608093D9
:100A7000B1008091B00081608093B00080917A00D5
:100A8000846080937A0080917A00826080937A00FB
:100A900080917A00816080937A0080917A008068EA
:100AA00080937A001092C100E0916001F0916101A1
:100AB00082E08083E0915C01F0915D011082E09121
:100AC0005E01F0915F018FEC808310926801E091EC
:100AD0006401F091650186E08083E0916201F0910C
:100AE0006301808180618083E0916201F091630104
:100AF000808188608083E0916201F0916301808150
:100B000080688083E0916201F091630180818F7D34
:100B100080838BE191E00E94D702809112028C3099
:100B200008F069C0E5E9F0E02491E1E8F0E08491A3
:100B3000882399F090E0880F991FFC01E859FF4F36
:100B4000A591B491FC01EE58FF4F859194918FB718
:100B5000F894EC91E22BEC938FBF80911202E82F76
:100B6000F0E09F01220F331FE20FF31FE351FE4F0E
:100B70009081907C9560908392EF909313021092F5
:100B800014026CE00E94FF072CE0829FB001112448
:100B900040E050E09B01240F351FF901EE0FFF1FCD
:100BA0002E0F3F1FF901E351FE4F908196FD16C0B5
:100BB0004F5F5F4F4C30510569F781110FC01092A4
:100BC000800082E080938100109285001092840062
:100BD000B19A80916F00826080936F00E091120261
:100BE000F0E0CF01880F991FE80FF91FE351FE4F86
:100BF00080818064808380E090E00E948800E8E546
:100C00002E2EE2E03E2EFAE04F2E512C612C712C5C
:100C100080E591E00E941402892B39F10E947E0147
:100C200080E591E00E94F20189831A820091190205
:100C300010911A020F5F1F4FC8010E94E50288231E
:100C400039F320911502309116028091190290918A
:100C50001A02BE016F5F7F4F820F931F0E94060A28
:100C600010931A0200931902D3CF80911902909128
:100C70001A02892B09F4BEC08091150290911602C8
:100C8000009719F00E94290703C060E070E0CB01D3
:100C900070934601609345016B01770FEE08FF08E2
:100CA000F7FE20C06DE280E591E00E944C02222711
:100CB0003327A9012C193D094E095F0919A28E019C
:100CC0000F5D1F4FCA01B901A30192010E94CE0717
:100CD000605DF80162938F012115310541055105D1
:100CE00089F715C0A701960119A28E010F5D1F4F4C
:100CF000CA01B901A30192010E94CE07605DF8010B
:100D000062938F01211531054105510589F7C8010D
:100D10000E94C5028CE291E00E94D7020E947E01EF
:100D200080914501909146010E94880080911402B3
:100D30006101C81AD10887FDD394CC0CDD1CCC0C02
:100D4000DD1C0D2C000CEE08FF088091130228E832
:100D500030E0281B310987FD3395C901880F991FA1
:100D6000880F991F4C01990FAA08BB0880911202A5
:100D70008F3FC1F090E0FC01EE0FFF1F8E0F9F1F11
:100D8000FC01E351FE4F2181328143E0220F331FEA
:100D90004A95E1F754E0369527955A95E1F72E5F8D
:100DA0003F4F02C020E030E0009145011091460124
:100DB000035011092F5F3F4FC901330FAA0BBB0B23
:100DC0009C01AD01281939094A095B09A4EBB0E07F
:100DD0000E948407A7019601281939094A095B096D
:100DE0000E946507201731072CF484E391E00E94EC
:100DF000D7029CCF80E090E00E94E502209115028E
:100E000030911602811113C02115310519F0C90165
:100E10000E94A908109216021092150210921A024E
:100E200010921902109218021092170209C0109223
:100E30001A02109219026AE171E0C9010E94060AC1
:100E40000E94BB02E5CE80911502909116020C948F
:100E5000A9081F93FC0199278827BC01E8941191E8
:100E60001032E9F3193010F01E30C8F31B3251F084
:100E70001D3249F4689406C00E945007610F711D2D
:100E8000811D911D119110531A30B0F33EF49095CD
:100E90008095709561957F4F8F4F9F4F1F9108955B
:100EA000592F482F372F262F660F771F881F991F1E
:100EB000660F771F881F991F620F731F841F951F6E
:100EC000660F771F881F991F0895052E97FB1EF444
:100ED00000940E947C0757FD07D00E94CE0707FCB4
:100EE00003D04EF40C947C07509540953095219595
:100EF0003F4F4F4F5F4F0895909580957095619546
:100F00007F4F8F4F9F4F08950E94F007A59F900D30
:100F1000B49F900DA49F800D911D11240895B7FFDB
:100F20000C9484070E948407821B930B08952F92D0
:100F30003F924F925F926F927F928F929F92AF9269
:100F4000BF92CF92DF92EF92FF920F931F93CF93B6
:100F5000DF93CDB7DEB7CA1BDB0B0FB6F894DEBF4D
:100F60000FBECDBF09942A88398848885F846E8473
:100F70007D848C849B84AA84B984C884DF80EE80BD
:100F8000FD800C811B81AA81B981CE0FD11D0FB6C6
:100F9000F894DEBF0FBECDBFED010895A1E21A2E79
:100FA000AA1BBB1BFD010DC0AA1FBB1FEE1FFF1F0D
:100FB000A217B307E407F50720F0A21BB30BE40B5D
:100FC000F50B661F771F881F991F1A9469F76095A4
:100FD0007095809590959B01AC01BD01CF0108955E
:100FE000A29FB001B39FC001A39F700D811D11246A
:100FF000911DB29F700D811D1124911D0895991BA3
:1010000079E004C0991F961708F0961B881F7A95FF
:10101000C9F780950895EE0FFF1F0590F491E02D1C
:1010200009940F931F93CF93DF938230910510F4AF
:1010300082E090E0E0911D02F0911E0220E030E09D
:10104000A0E0B0E0309719F1408151810281138115
:1010500048175907C8F08417950769F4109731F0BD
:1010600012960C93129713961C9327C000931D029F
:1010700010931E0222C02115310519F042175307A3
:1010800018F49A01BD01EF01DF01F801DBCF211552
:101090003105F9F0281B390B2430310580F48A81A1
:1010A0009B816115710521F0FB019383828304C04C
:1010B00090931E0280931D02FE01329644C0FE01F1
:1010C000E20FF31F819391932250310939832883D2
:1010D0003AC020911B0230911C02232B41F4209135
:1010E00002013091030130931C0220931B022091D6
:1010F0000001309101012115310541F42DB73EB7B2
:101100004091040150910501241B350BE0911B0215
:10111000F0911C02E217F307A0F42E1B3F0B2817D7
:10112000390778F0AC014E5F5F4F2417350748F060
:101130004E0F5F1F50931C0240931B0281939193AB
:1011400002C0E0E0F0E0CF01DF91CF911F910F915D
:101150000895CF93DF93009709F481C0FC01329783
:1011600013821282A0911D02B0911E02109781F489
:1011700020813181820F931F20911B0230911C022C
:101180002817390751F5F0931C02E0931B0267C042
:10119000ED0120E030E0CE17DF0740F44A815B81AB
:1011A0009E0141155105F1F0EA01F5CFD383C283C9
:1011B00040815181840F951FC817D90759F4888140
:1011C0009981840F951F0296918380838A819B81E8
:1011D000938382832115310529F4F0931E02E09355
:1011E0001D023DC0E901FB83EA8349915991C40F77
:1011F000D51FEC17FD0761F480819181840F951F45
:101200000296E90199838883828193819B838A83F3
:10121000E0E0F0E012968D919C911397009719F001
:10122000FD01DC01F7CF8D919C9111979D012E5FFF
:101230003F4F820F931F20911B0230911C022817F1
:10124000390769F4309729F410921E0210921D029A
:1012500002C013821282B0931C02A0931B02DF9182
:10126000CF910895A0E0B0E0E8E3F9E00C949B078B
:10127000EC01009721F4CB010E941108B4C0FC01DD
:10128000E60FF71F9C0122503109E217F30708F41B
:10129000A8C0D9010D911C91119706171707B0F03E
:1012A0000530110508F49BC0C801049786179707FD
:1012B00008F495C002501109061B170B01931193F6
:1012C0006D937C93CF010E94A90889C05B01A01A8D
:1012D000B10A4C01800E911EA0911D02B0911E0218
:1012E000612C712CE12CF12C109709F446C08D91E2
:1012F0009C911197A815B905B1F56C0142E0C40E97
:10130000D11CCA14DB0478F14C018A189B086401D3
:1013100042E0C40ED11C1296BC9012971396AC9169
:10132000B5E0CB16D10440F0B282A38391828082D3
:10133000D9016D937C9309C00E5F1F4F800F911FE1
:10134000F90191838083EB2DFA2FE114F10431F040
:10135000D7011396FC93EE93129741C0F0931E02AF
:10136000E0931D023CC06816790608F43C017D013B
:1013700012960D90BC91A02DB7CF80911B02909139
:101380001C0288169906E1F466167706C8F4809167
:10139000000190910101009741F48DB79EB74091F3
:1013A000040150910501841B950BE817F907C8F457
:1013B000F0931C02E0931B02F901718360830FC05C
:1013C000CB010E9411087C01009759F0A801BE01D1
:1013D0000E94FD09CE010E94A908C70104C0CE01E8
:1013E00002C080E090E0CDB7DEB7EEE00C94B70726
:1013F00081E090E0F8940C940D0AFB01DC0102C03E
:1014000001900D9241505040D8F70895FB01DC0146
:1014100001900D920020E1F7089510E0CDE5D0E0B5
:1014200004C0FE010E940B082196CE35D107C9F7F2
:04143000F894FFCF5E
:1014340000001F028000000000004C02B501E3011F
:1014440099021402F20106020D0A00536572766FC6
:1014540073202D2041726475696E6F00204772619C
:10146400646F7300446573706C617A616E646F2E8F
:041474002E2E000018
:107E0000112484B714BE81FFF0D085E080938100F7
:107E100082E08093C00088E18093C10086E0809377
:107E2000C20080E18093C4008EE0C9D0259A86E02C
:107E300020E33CEF91E0309385002093840096BBD3
:107E4000B09BFECF1D9AA8958150A9F7CC24DD24C4
:107E500088248394B5E0AB2EA1E19A2EF3E0BF2EE7
:107E6000A2D0813461F49FD0082FAFD0023811F036
:107E7000013811F484E001C083E08DD089C08234E0
:107E800011F484E103C0853419F485E0A6D080C0E4
:107E9000853579F488D0E82EFF2485D0082F10E0AE
:107EA000102F00270E291F29000F111F8ED06801E7
:107EB0006FC0863521F484E090D080E0DECF843638
:107EC00009F040C070D06FD0082F6DD080E0C81688
:107ED00080E7D80618F4F601B7BEE895C0E0D1E017
:107EE00062D089930C17E1F7F0E0CF16F0E7DF06D8
:107EF00018F0F601B7BEE89568D007B600FCFDCFD4
:107F0000A601A0E0B1E02C9130E011968C91119780
:107F100090E0982F8827822B932B1296FA010C0160
:107F200087BEE89511244E5F5F4FF1E0A038BF0790
:107F300051F7F601A7BEE89507B600FCFDCF97BE46
:107F4000E89526C08437B1F42ED02DD0F82E2BD052
:107F50003CD0F601EF2C8F010F5F1F4F84911BD097
:107F6000EA94F801C1F70894C11CD11CFA94CF0C13
:107F7000D11C0EC0853739F428D08EE10CD085E9AC
:107F80000AD08FE07ACF813511F488E018D01DD067
:107F900080E101D065CF982F8091C00085FFFCCF94
:107FA0009093C60008958091C00087FFFCCF809118
:107FB000C00084FD01C0A8958091C6000895E0E648
:107FC000F0E098E1908380830895EDDF803219F02E
:107FD00088E0F5DFFFCF84E1DECF1F93182FE3DFCA
:107FE0001150E9F7F2DF1F91089580E0E8DFEE27F6
:047FF000FF270994CA
:027FFE00040479
:0400000300007E007B
:00000001FF
