:100000000C945D000C9485000C9485000C94850084
:100010000C9485000C9485000C9485000C9485004C
:100020000C9485000C9485000C9485000C9485003C
:100030000C9485000C9485000C9485000C9485002C
:100040000C949E020C9485000C9485000C94850001
:100050000C9485000C9485000C9485000C9485000C
:100060000C9485000C94850000000008000201003B
:100070000003040700000000000000000000000072
:10008000250028002B0000000000240027002A0083
:10009000040404040404040402020202020203032E
:1000A0000303030301020408102040800102040836
:1000B0001020010204081020950411241FBECFEF68
:1000C000D8E0DEBFCDBF11E0A0E0B1E0ECE3FEE0A0
:1000D00002C005900D92A233B107D9F721E0A2E347
:1000E000B1E001C01D92A735B207E1F710E0CDE500
:1000F000D0E004C02197FE010E941107CC35D10742
:10010000C9F70E94E8020C941C070C94000090E0D0
:10011000FC01EC55FF4F2491FC01E057FF4F849107
:10012000882399F090E0880F991FFC01EA57FF4F50
:10013000A591B491FC01E458FF4F859194918FB73C
:10014000F894EC91E22BEC938FBF089590E0FC01C2
:10015000E859FF4F2491FC01EC55FF4F3491FC010D
:10016000E057FF4FE491EE2309F43CC0222339F11C
:10017000233091F038F42130A9F0223001F584B514
:100180008F7D12C0273091F02830A1F02430B9F4CF
:10019000809180008F7D03C0809180008F77809355
:1001A00080000DC084B58F7784BD09C08091B000F8
:1001B0008F7703C08091B0008F7D8093B000F0E016
:1001C000EE0FFF1FE458FF4FA591B4919FB7F8942D
:1001D000611104C08C913095382302C0EC913E2B04
:1001E0003C939FBF08953FB7F89480913B01909155
:1001F0003C01A0913D01B0913E0126B5A89B05C0F0
:100200002F3F19F00196A11DB11D3FBFBA2FA92F95
:10021000982F8827820F911DA11DB11DBC01CD0112
:1002200042E0660F771F881F991F4A95D1F70895FE
:10023000CF92DF92EF92FF920F931F93CF93DF93B2
:100240006C017A018B01C0E0D0E0CE15DF0581F0B2
:10025000D8016D918D01D601ED91FC910190F08155
:10026000E02DC6010995892B11F02196EECF7E0174
:10027000C701DF91CF911F910F91FF90EF90DF9019
:10028000CF900895CF93DF93EC0160E08E810E94C0
:10029000A60061E08E810E94A60060E08E810E942F
:1002A000A6008BE891E00197F1F7DF91CF910895D7
:1002B000CF92DF92EF92FF920F931F93CF93DF9332
:1002C0006C017C0187E0E80EF11CC0E0D0E0062F55
:1002D00010E0B8010C2E02C0759567950A94E2F7FC
:1002E0006170F70181917F010E94A6002196C430C0
:1002F000D10579F7C601DF91CF911F910F91FF9042
:10030000EF90DF90CF900C944201CF92DF92EF926A
:10031000FF920F931F93CF93DF93EC01F62E642F80
:100320008C810E94A6008D818F3F19F060E00E94B1
:10033000A6008F850F2D10E084FF25C06E0187E099
:10034000C80ED11CE12CF12CB8010E2C02C0759501
:1003500067950A94E2F76170F60181916F010E943E
:10036000A600FFEFEF1AFF0A88E0E816F10461F734
:10037000CE01DF91CF911F910F91FF90EF90DF9011
:10038000CF900C944201B80184E0759567958A95E9
:10039000E1F7CE010E9458016F2DCE01DF91CF9180
:1003A0001F910F91FF90EF90DF90CF900C94580128
:1003B00040E0682F8FE391E00C948501CF93DF93A9
:1003C000823028F090914E01986090934E01809376
:1003D00052011092530180E48093540180E1809394
:1003E000550180E580935601809143010E9487006A
:1003F000809144018F3F11F00E9487008091450158
:100400000E948700CFE3D1E09E012F5331408091BD
:100410004E0184FD03C084E090E002C088E090E0DB
:1004200021962817390724F48E810E948700ECCF8B
:100430008BE39DE00197F1F760E0809143010E941A
:10044000A60060E0809145010E94A60080914401D1
:100450008F3F19F060E00E94A60080914E0184FD5C
:1004600020C063E08FE391E00E945801CBE4D6E422
:10047000CE010197F1F763E08FE391E00E9458010C
:100480002197F1F763E08FE391E00E94580183E543
:1004900092E00197F1F762E08FE391E00E9458014A
:1004A00015C080620E94D8018BE496E40197F1F7B1
:1004B00080914E0180620E94D80183E592E001970D
:1004C000F1F780914E0180620E94D80180914E0127
:1004D00080620E94D80184E080934F018CE00E94EA
:1004E000D80181E00E94D8018BE39FE10197F1F7E9
:1004F00082E08093500186E0DF91CF910C94D80187
:1005000041E00E94850181E090E00895089580E037
:1005100090E00895009769F0FC0101900020E9F750
:100520003197AF01481B590BBC018FE391E00C944C
:10053000180180E090E008950E9417071F920F9223
:100540000FB60F9211242F933F938F939F93AF93E6
:10055000BF938091370190913801A0913901B091FA
:100560003A013091360123E0230F2D3720F4019614
:10057000A11DB11D05C026E8230F0296A11DB11DC6
:10058000209336018093370190933801A09339016D
:10059000B0933A0180913B0190913C01A0913D01C3
:1005A000B0913E010196A11DB11D80933B01909336
:1005B0003C01A0933D01B0933E01BF91AF919F914B
:1005C0008F913F912F910F900FBE0F901F90189514
:1005D000CF93DF93CDB7DEB7A2970FB6F894DEBF07
:1005E0000FBECDBF789484B5826084BD84B5816030
:1005F00084BD85B5826085BD85B5816085BD8091EE
:100600006E00816080936E00109281008091810065
:10061000826080938100809181008160809381005D
:10062000809180008160809380008091B10084601F
:100630008093B1008091B00081608093B000809180
:100640007A00846080937A0080917A00826080933F
:100650007A0080917A00816080937A0080917A009C
:10066000806880937A001092C10082E00E94DE01CF
:1006700082E00E94D8018BE39FE10197F1F78CE0C3
:1006800091E00E948A02E0915201E23010F4E150C0
:1006900001C0E1E0F0E0E15CFE4F848980680E94E7
:1006A000D80188E191E00E948A022AE0822E912CF2
:1006B000A12CB12C20E420937C0080917A008064EE
:1006C00080937A0080917A0086FDFCCF609178005B
:1006D0008091790070E0782B072E000C880B990B25
:1006E0000E94C80520E030E040EA50E40E947D0608
:1006F00020E030EC4FE754E40E9425052AE037ED76
:1007000043E25CE30E9425056B017C0160933201AA
:10071000709333018093340190933501E09152013D
:10072000E23010F4E15001C0E1E0F0E0E15CFE4FA6
:100730008489895F80680E94D801A7019601C7015A
:10074000B6010E94EA06882319F08FE191E01AC0F1
:1007500026013701E89477F82FEF3FEF4FE75FE787
:10076000C301B2010E94EA0681110FC02FEF3FEFD3
:100770004FE75FE7C301B2010E94200518162CF471
:1007800083E291E00E948A029DC02FEF3FEF4FE786
:100790005FE4C701B6010E94780618161CF487E2D0
:1007A00091E0F0CF2FEF3FEF4FE75FECC701B601CD
:1007B0000E94200587FDF3CF20E030E0A901C701AA
:1007C000B6010E94200587FF0AC041E06DE28FE379
:1007D00091E00E948501F7FAF094F7F8F0942AE08E
:1007E00037ED43EA5BE3C701B6010E94B4042B0175
:1007F0003C010E9497056B017C010E94C6059B018C
:10080000AC01C301B2010E94B3041B012C0119A267
:100810008E010F5D1F4F0AA3712EC701B601A501FE
:1008200094010E94EF0669017A01605DF80162930C
:100830008F01232B242B252B81F7CF010E948A02C5
:1008400041E06EE28FE391E00E94850193E0F92E92
:10085000FA94FF20B9F120E030E040E251E4C20117
:10086000B1010E947D061B012C010E9497059B018E
:1008700040E050E019A20AA1172D662EC32ED42EF7
:10088000E52ECA01B901A50194010E94EF06605D41
:10089000F80162938F01211531054105510589F752
:1008A000CF010E948A02662D7C2D8D2D9E2D0E94E7
:1008B000C6059B01AC01C201B1010E94B3041B013A
:1008C0002C01C6CF8BE291E00E948A020E94F300C5
:1008D0006B017C0188EE482E83E0582E612C712C30
:1008E0000E94F300DC01CB018C199D09AE09BF0900
:1008F000883E9340A105B10598F3F1E04F1A5108E5
:100900006108710828EEC20E23E0D21EE11CF11C22
:10091000411451046104710419F780E090E0892BBF
:1009200009F4C8CE0E940000C5CEEFE3F1E01382C7
:10093000128284E091E0918380838AE0848389E05D
:10094000858388E0868385E0878384E0808783E0F1
:10095000818782E08287138614861586168617861D
:1009600081E00C94DE015058BB27AA270E94CB04DB
:100970000C943E060E94300638F00E94370620F0A4
:1009800039F49F3F19F426F40C942D060EF4E095EB
:10099000E7FB0C942706E92F0E944F0658F3BA177D
:1009A000620773078407950720F079F4A6F50C9485
:1009B00071060EF4E0950B2EBA2FA02D0B01B90194
:1009C00090010C01CA01A0011124FF27591B99F0C5
:1009D000593F50F4503E68F11A16F040A22F232FD1
:1009E000342F4427585FF3CF469537952795A79521
:1009F000F0405395C9F77EF41F16BA0B620B730BC8
:100A0000840BBAF09150A1F0FF0FBB1F661F771F38
:100A1000881FC2F70EC0BA0F621F731F841F48F4ED
:100A2000879577956795B795F7959E3F08F0B0CF76
:100A30009395880F08F09927EE0F9795879508955D
:100A40000E94030608F481E008950E9439050C9481
:100A50003E060E94370658F00E94300640F029F406
:100A60005F3F29F00C94270651110C9472060C94E8
:100A70002D060E944F0668F39923B1F3552391F395
:100A8000951B550BBB27AA2762177307840738F0FD
:100A90009F5F5F4F220F331F441FAA1FA9F335D05A
:100AA0000E2E3AF0E0E832D091505040E695001C0E
:100AB000CAF72BD0FE2F29D0660F771F881FBB1FC8
:100AC000261737074807AB07B0E809F0BB0B802DA6
:100AD000BF01FF2793585F4F3AF09E3F510578F0D2
:100AE0000C9427060C9472065F3FE4F3983ED4F30F
:100AF000869577956795B795F7959F5FC9F7880FA6
:100B0000911D9695879597F90895E1E0660F771FF7
:100B1000881FBB1F621773078407BA0720F0621B88
:100B2000730B840BBA0BEE1F88F7E09508950E94B3
:100B3000570688F09F5798F0B92F9927B751B0F012
:100B4000E1F0660F771F881F991F1AF0BA95C9F751
:100B500014C0B13091F00E947106B1E008950C9478
:100B60007106672F782F8827B85F39F0B93FCCF32B
:100B7000869577956795B395D9F73EF490958095CE
:100B8000709561957F4F8F4F9F4F0895E89409C0EE
:100B900097FB3EF490958095709561957F4F8F4FB0
:100BA0009F4F9923A9F0F92F96E9BB279395F695C6
:100BB000879577956795B795F111F8CFFAF4BB0F44
:100BC00011F460FF1BC06F5F7F4F8F4F9F4F16C0A8
:100BD000882311F096E911C0772321F09EE8872F32
:100BE000762F05C0662371F096E8862F70E060E0EE
:100BF0002AF09A95660F771F881FDAF7880F969567
:100C0000879597F90895990F0008550FAA0BE0E80A
:100C1000FEEF16161706E807F907C0F012161306BE
:100C2000E407F50798F0621B730B840B950B39F4FE
:100C30000A2661F0232B242B252B21F408950A2664
:100C400009F4A140A6958FEF811D811D089597F9A4
:100C50009F6780E870E060E008959FEF80EC089562
:100C600000240A941616170618060906089500248B
:100C70000A9412161306140605060895092E039405
:100C8000000C11F4882352F0BB0F40F4BF2B11F479
:100C900060FF04C06F5F7F4F8F4F9F4F089557FDD8
:100CA0009058440F551F59F05F3F71F04795880FDA
:100CB00097FB991F61F09F3F79F087950895121671
:100CC00013061406551FF2CF4695F1DF08C016161D
:100CD00017061806991FF1CF8695710561050894CE
:100CE0000895E894BB2766277727CB0197F90895E5
:100CF0000E94030608F48FEF08950E9490060C945A
:100D00003E060E94300638F00E94370620F09523F8
:100D100011F00C9427060C942D0611240C947206E5
:100D20000E944F0670F3959FC1F3950F50E0551F39
:100D3000629FF001729FBB27F00DB11D639FAA2730
:100D4000F00DB11DAA1F649F6627B00DA11D661F7F
:100D5000829F2227B00DA11D621F739FB00DA11DA0
:100D6000621F839FA00D611D221F749F3327A00D5A
:100D7000611D231F849F600D211D822F762F6A2FF6
:100D800011249F5750409AF0F1F088234AF0EE0F5B
:100D9000FF1FBB1F661F771F881F91505040A9F788
:100DA0009E3F510580F00C9427060C9472065F3F1D
:100DB000E4F3983ED4F3869577956795B795F795C4
:100DC000E7959F5FC1F7FE2B880F911D969587953C
:100DD00097F908950E940306880B990B0895A1E2E4
:100DE0001A2EAA1BBB1BFD010DC0AA1FBB1FEE1FA5
:100DF000FF1FA217B307E407F50720F0A21BB30BF0
:100E0000E40BF50B661F771F881F991F1A9469F76B
:100E100060957095809590959B01AC01BD01CF01C7
:100E20000895EE0FFF1F0590F491E02D099481E0E5
:0C0E300090E0F8940C941C07F894FFCF9D
:100E3C000000000080021801870286024144432012
:100E4C0041726475696E6F0054656D703A20006E66
:100E5C00616E00696E66006F76660020432020206C
:020E6C00200064
:107E0000112484B714BE81FFF0D085E080938100F7
:107E100082E08093C00088E18093C10086E0809377
:107E2000C20080E18093C4008EE0C9D0259A86E02C
:107E300020E33CEF91E0309385002093840096BBD3
:107E4000B09BFECF1D9AA8958150A9F7CC24DD24C4
:107E500088248394B5E0AB2EA1E19A2EF3E0BF2EE7
:107E6000A2D0813461F49FD0082FAFD0023811F036
:107E7000013811F484E001C083E08DD089C08234E0
:107E800011F484E103C0853419F485E0A6D080C0E4
:107E9000853579F488D0E82EFF2485D0082F10E0AE
:107EA000102F00270E291F29000F111F8ED06801E7
:107EB0006FC0863521F484E090D080E0DECF843638
:107EC00009F040C070D06FD0082F6DD080E0C81688
:107ED00080E7D80618F4F601B7BEE895C0E0D1E017
:107EE00062D089930C17E1F7F0E0CF16F0E7DF06D8
:107EF00018F0F601B7BEE89568D007B600FCFDCFD4
:107F0000A601A0E0B1E02C9130E011968C91119780
:107F100090E0982F8827822B932B1296FA010C0160
:107F200087BEE89511244E5F5F4FF1E0A038BF0790
:107F300051F7F601A7BEE89507B600FCFDCF97BE46
:107F4000E89526C08437B1F42ED02DD0F82E2BD052
:107F50003CD0F601EF2C8F010F5F1F4F84911BD097
:107F6000EA94F801C1F70894C11CD11CFA94CF0C13
:107F7000D11C0EC0853739F428D08EE10CD085E9AC
:107F80000AD08FE07ACF813511F488E018D01DD067
:107F900080E101D065CF982F8091C00085FFFCCF94
:107FA0009093C60008958091C00087FFFCCF809118
:107FB000C00084FD01C0A8958091C6000895E0E648
:107FC000F0E098E1908380830895EDDF803219F02E
:107FD00088E0F5DFFFCF84E1DECF1F93182FE3DFCA
:107FE0001150E9F7F2DF1F91089580E0E8DFEE27F6
:047FF000FF270994CA
:027FFE00040479
:0400000300007E007B
:00000001FF
